:020000040000FA
:0400000007EF00F016
:0A000800788283ED22F089EF20F0EA
:101000000054696D653A20252E32643A252E3264EB
:101010003A252E3264003130536563202020202091
:101020002020202020004D696E202020202020201C
:101030002020200031304D696E202020202020000B
:1010400053503A25352E31664320200043543A252B
:10105000352E3166432020004852202020202020B9
:10106000202000434B3A4F46460048543A4F4646EC
:1010700000434B3A204F4E0048543A204F4E00490F
:101080004E46004E414E00696E66006E616E004D28
:07109000443A006C66000009
:10109800000E00019B6F000E9A6F66C0ACF067C02F
:1010A800ADF068C0AEF069C0AFF0AFAF16D0000EBB
:1010B8009B6F010E9A6FACC007F0ADC008F0AEC0D0
:1010C80009F0AFC00AF040EC22F007C0ACF008C04D
:1010D800ADF009C0AEF00AC0AFF0000E0001B36F6A
:1010E800000EB26FF4C09FF0F5C0A0F09A519B11AA
:1010F800D8A402D0F8A513D09A519B11D8A404D033
:10110800000E856F2B0E03D0000E856F2D0E846F99
:1011180084C0A4F1B24BB32B9F07D8A0A007ACC0E2
:1011280007F0ADC008F0AEC009F0AFC00AF0DAECC5
:101138001CF007040810D8A44CD0BF0E6B6EFF0E2D
:101148006C6E6A506D6E6E6A6B506D266C506E22B6
:101158006E5006E11A0E6D5CD8B002D0010E01D0B7
:10116800000E0001866F876B86518711D8B40DD0A9
:10117800A40EB225076E010EB321086E7F0E096E0C
:10118800100E0A6E5FEC20F00CD0A40EB225076E8C
:10119800010EB321086E870E096E100E0A6E5FEC01
:1011A80020F00001FD0E9F27FF0EA02364C017F05A
:1011B80065C018F0A40E196E010E1A6E9FC01BF0C0
:1011C800A0C01CF03EEC1EF017C064F018C065F01B
:1011D8001200ACC007F0ADC008F0AEC009F0AFC057
:1011E8000AF0DAEC1CF007500810D8A435D0BF0E6E
:1011F8006B6EFF0E6C6E6A506D6E6E6A6B506D266C
:101208006C506E226E5006E11A0E6D5CD8B002D09A
:10121800010E01D0000E0001886F896B8851891179
:10122800D8B40DD0A40EB225076E010EB321086EF6
:10123800830E096E100E0A6E5FEC20F0B2D7A40E72
:10124800B225076E010EB321086E8B0E096E100EC3
:101258000A6E5FEC20F0A5D7000E0001B46F000EF7
:10126800B56F800EB66F3F0EB76F000EB16F000EF0
:10127800B06FACC007F0ADC008F0AEC009F0AFC0A9
:101288000AF0000E0B6E000E0C6E000E0D6E000EB6
:101298000E6ED5EC1EF0D8A01ED076D0B4C03FF0AC
:1012A800B5C040F0B6C041F0B7C042F0000E436E82
:1012B800000E446E200E456E410E466E6BEC12F029
:1012C8003FC0B4F040C0B5F041C0B6F042C0B7F07E
:1012D8000001B04BB12BACC058F0ADC059F0AEC056
:1012E8005AF0AFC05BF0000E436E000E446E200E45
:1012F800456E410E466EB4C03FF0B5C040F0B6C072
:1013080041F0B7C042F06BEC12F03FC05CF040C057
:101318005DF041C05EF042C05FF072EC1CF0D8A0F6
:101328001FD0BCD7B4C01BF0B5C01CF0B6C01DF0B0
:10133800B7C01EF0000E1F6E000E206E200E216E2C
:10134800410E226E9AEC15F01BC0B4F01CC0B5F02B
:101358001DC0B6F01EC0B7F00001B007D8A0B10795
:10136800ACC058F0ADC059F0AEC05AF0AFC05BF099
:10137800B4C05CF0B5C05DF0B6C05EF0B7C05FF059
:1013880072EC1CF0D8A0CED76AC00DF00E6A00EC43
:1013980021F00D500001A16FA1C09EF0670EA119A8
:1013A800D8A419D0F651F711D8A404D0000EF76FBD
:1013B800010EF66FF7BF05D0F75108E1F605D8B072
:1013C80005D0000E9D6F060E9C6F08D0F6C09CF0ED
:1013D800F7C09DF003D0F7AFF9D7F3D7670EA1197F
:1013E800D8A422D0B1AF06D0FC0EB05DFF0EB15923
:1013F800D8A018D0FF0E6B6EFF0E6C6E9CC06DF0FF
:101408009DC06EF06B506D266C506E22B0516D5CB5
:101418006E50800A6F6EB151800A6F58D8A002D002
:10142800660E01D0650E9E6F9CC094F09DC095F02D
:10143800670EA119D8A405D0660E9E19D8B4B1AF0D
:1014480002D0944B952B660E9E19D8A416D0B1AF36
:101458000CD0000EB46F000EB56F800EB66F3F0E45
:10146800B76F000EB16F000EB06F670EA119D8B438
:1014780004D0B0519427B1519523000EAB6F000EE4
:10148800AA6FACC0A2F0ADC0A3F0AEC0A4F0AFC0CC
:10149800A5F0B4C080F0B5C081F0B6C082F0B7C086
:1014A80083F07BD0A2C01BF0A3C01CF0A4C01DF029
:1014B800A5C01EF0B4C01FF0B5C020F0B6C021F022
:1014C800B7C022F09AEC15F01BC034F01CC035F000
:1014D8001DC036F01EC037F021EC19F034C0A6F05C
:1014E80035C0A7F036C0A8F037C0A9F0A6C007F0ED
:1014F800A7C008F0A8C009F0A9C00AF040EC1DF088
:1015080007C098F008C099F0A2C058F0A3C059F0DD
:10151800A4C05AF0A5C05BF0B4C043F0B5C044F015
:10152800B6C045F0B7C046F0A6C03FF0A7C040F02F
:10153800A8C041F0A9C042F06BEC12F03FC05CF0CB
:1015480040C05DF041C05EF042C05FF026EC21F083
:1015580058C0A2F059C0A3F05AC0A4F05BC0A5F0CF
:10156800B4C01BF0B5C01CF0B6C01DF0B7C01EF06B
:10157800000E1F6E000E206E200E216E410E226E90
:101588009AEC15F01BC0B4F01CC0B5F01DC0B6F045
:101598001EC0B7F00001AA4BAB2B9451AA5DAB510A
:1015A800800A6B6E9551800A6B58D8A07BD7B4C05F
:1015B8003FF0B5C040F0B6C041F0B7C042F0000EF1
:1015C800436E000E446EA00E456E400E466E6BECE8
:1015D80012F03FC0A6F040C0A7F041C0A8F042C03A
:1015E800A9F0A2C058F0A3C059F0A4C05AF0A5C0F1
:1015F8005BF0A6C05CF0A7C05DF0A8C05EF0A9C013
:101608005FF072EC1CF0D8B003D0000E000118D0C7
:10161800A2C007F0A3C008F0A4C009F0A5C00AF052
:10162800A6C00BF0A7C00CF0A8C00DF0A9C00EF022
:10163800D5EC1EF0D8A00BD0000198B108D0000E50
:10164800A66F000EA76F000EA86F000EA96FACC0A2
:1016580007F0ADC008F0AEC009F0AFC00AF0A6C0F0
:101668000BF0A7C00CF0A8C00DF0A9C00EF014EC48
:1016780014F007C0A2F008C0A3F009C0A4F00AC083
:10168800A5F080C0B4F081C0B5F082C0B6F083C0C8
:10169800B7F0650E00019E19D8B405D0B0C096F019
:1016A800B1C097F004D0000E976F000E966F000E31
:1016B800936F000E926F000E916F000E906F000EE8
:1016C800AB6F000EAA6FC6D0A2C01BF0A3C01CF05F
:1016D800A4C01DF0A5C01EF0B4C01FF0B5C020F016
:1016E800B6C021F0B7C022F09AEC15F01BC034F058
:1016F8001CC035F01DC036F01EC037F021EC19F0C3
:1017080034C0A6F035C0A7F036C0A8F037C0A9F09D
:10171800A6C007F0A7C008F0A8C009F0A9C00AF041
:1017280040EC1DF007C098F008C099F00001F8B926
:101738000CD098519911D8A408D0670EA119D8B423
:1017480097AF03D0904B912B39D092519311D8B4C5
:1017580097AF22D0A40EB225D96E010EB321DA6E4E
:101768002E0EDF6EB24BB32B9F07D8A0A007000E3A
:10177800936F010E926F10D0A40EB225D96E010E90
:10178800B321DA6E300EDF6EB24BB32B9F07D8A0B1
:10179800A0079007D8A0910790519111D8A4ECD731
:1017A800A40EB225D96E010EB321DA6E9851300F0E
:1017B800DF6EB24BB32B9F07D8A0A007A2C058F08A
:1017C800A3C059F0A4C05AF0A5C05BF0B4C043F060
:1017D800B5C044F0B6C045F0B7C046F0A6C03FF06B
:1017E800A7C040F0A8C041F0A9C042F06BEC12F0CD
:1017F8003FC05CF040C05DF041C05EF042C05FF0A9
:1018080026EC21F058C0A2F059C0A3F05AC0A4F0A9
:101818005BC0A5F0B4C01BF0B5C01CF0B6C01DF08D
:10182800B7C01EF0000E1F6E000E206E200E216E37
:10183800410E226E9AEC15F01BC0B4F01CC0B5F036
:101848001DC0B6F01EC0B7F000019607D8A09707D4
:10185800AA4BAB2B9451AA5DAB51800A6B6E955184
:10186800800A6B58D8B008D0B3BF2ED7B35104E163
:101878004B0EB25DD8A028D792519311D8B4F8A9CD
:101888000AD0A40EB225D96E010EB321DA6E2E0E3F
:10189800DF6EB24BB32BA40EB225D96E010EB32165
:1018A800DA6E000EDF6E650E9E19D8A47FD4000E86
:1018B800AB6F4F0EAA6FA40EAA25D96E010EAB21ED
:1018C800DA6E000EDF6E000E9B6F000E9A6FB1AFDE
:1018D80008D0000E9B6F010E9A6FB06DB11FD8B083
:1018E800B12B000E9D6F020E9C6F2BD0AA07D8A0BB
:1018F800AB07A40EAA25D96E010EAB21DA6EB0C0D3
:1019080007F0B1C008F0000E0A6E0A0E096E9DECD1
:101918001FF00750300FDF6EB0C007F0B1C008F0FD
:10192800000E0A6E0A0E096E1AEC1FF007C0B0F01E
:1019380008C0B1F000019C07D8A09D079F07D8A058
:10194800A007B051B111D8A4D1D79DBF05D09D51E2
:10195800CDE19C05D8B0CAD7AA07D8A0AB079A5141
:101968009B11D8A404D0000E8B6F2B0E03D0000E51
:101978008B6F2D0E8A6FA40EAA25D96E010EAB218E
:10198800DA6E8AC0DFFF9F07D8A0A007AA07D8A0F1
:10199800AB07BF0E6B6EFF0E6C6E6A506D6E6E6A93
:1019A8006B506D266C506E226E5006E11A0E6D5CFF
:1019B800D8B002D0010E01D0000E8E6F8F6B8E5101
:1019C8008F11D8A404D0000E8D6F650E03D0000EC1
:1019D8008D6F450E8C6FA40EAA25D96E010EAB2112
:1019E800DA6E8CC0DFFF9F07D8A0A007A40EB2252F
:1019F800076E010EB321086EA40EAA25096E010E0A
:101A0800AB210A6E5FEC20F0DAEF08F0F4EC22F07C
:101A18001FEC23F0000ED56ED59ED59CD59AD5988F
:101A2800D596D594D582D580D09E000EF26EF288D8
:101A3800F28AF28EF28C000EF16EF18CF18AF18846
:101A4800000EF06EF086F088000E9D6E000E9E6E01
:101A5800000E9F6E000EA06E000EA06E000EA16E0E
:101A6800000EA26E000E816EDAEC20F0010E0F6EF1
:101A7800000EA5EC21F00400000E5CEC1FF034C051
:101A88003FF035C040F036C041F037C042F0000E9C
:101A9800436E000E446E200E456E420E466E6BEC91
:101AA80012F03FC09AF140C09BF141C09CF142C086
:101AB8009DF1020E5CEC1FF034C03FF035C040F0E1
:101AC80036C041F037C042F0000E436E000E446E3F
:101AD800480E456E430E466E6BEC12F03FC096F111
:101AE80040C097F141C098F142C099F181B6DFD06A
:101AF80001019E519F11D8A428D077BE06D07750F7
:101B080024E1050E765CD8B020D073BE06D07350A1
:101B180007E13B0E725CD8B003D0724A732A15D025
:101B2800000E736E000E726E75BE06D0755007E11A
:101B38003B0E745CD8B003D0744A752A06D0000EE8
:101B4800756E000E746E764A772A9E059F11D8A48A
:101B58003BD077BE06D0775037E1050E765CD8B01B
:101B680033D073BE06D073500BE1320E725CD8B01E
:101B780007D00A0E7224726E000E7320736E24D082
:101B8800CE0E7224726EFF0E7320736E75BE06D071
:101B9800755007E13B0E745CD8B003D0744A752ABF
:101BA80013D0000E756E000E746E764A772A050EF5
:101BB80076187710D8A408D0000E756E000E746ED3
:101BC800000E736E000E726E020E9E199F11D8A43D
:101BD80019D077BE06D0775015E1050E765CD8B0DF
:101BE80011D075BE06D0755007E13B0E745CD8B0B5
:101BF80003D0744A752A06D0000E756E000E746EF6
:101C0800764A772A030E9E199F11D8A42DD077BE45
:101C180006D0775029E1050E765CD8B025D075BE80
:101C280006D075500BE1320E745CD8B007D00A0E9E
:101C38007424746E000E7520756E32D0CE0E742426
:101C4800746EFF0E7520756E77BE06D0775006E16C
:101C5800050E765CD8B002D0764A772A050E76183B
:101C68007710D8A41DD015D1040E9E199F11D8A4A1
:101C780017D077BE06D0775013E1050E765CD8B042
:101C88000FD077BE06D0775006E1050E765CD8B047
:101C980002D0764A772A050E76187710D8B4F9D08C
:101CA800000E086EFA0E076EABEC22F014D181B864
:101CB800F9D001019E519F11D8A438D073BE09D024
:101CC800735003E17204D8A004D07206D8A073063A
:101CD8002DD075BE0DD0755003E17404D8A008D07E
:101CE800000E736E3B0E726E7406D8A075061ED079
:101CF80077BE10D0775003E17604D8A00BD07606D3
:101D0800D8A07706000E756E3B0E746E000E736ECB
:101D18003B0E0BD0000E776E000E766E000E756EC1
:101D2800000E746E000E736E000E726E9E059F118B
:101D3800D8A43FD073BE0BD0735004E10A0E725C76
:101D4800D8A005D0F60E7224726EFF0E23D075BE91
:101D58000FD0755003E17404D8A00AD0320E722453
:101D6800726E000E7320736E7406D8A0750621D0AB
:101D780077BE13D0775003E17604D8A00ED076064C
:101D8800D8A07706000E756E3B0E746E320E722464
:101D9800726E000E7320736E0CD0000E776E000EFC
:101DA800766E000E756E000E746E000E736E000E69
:101DB800726E020E9E199F11D8A426D075BE09D046
:101DC800755003E17404D8A004D07406D8A0750631
:101DD8001BD077BE0DD0775003E17604D8A008D089
:101DE8007606D8A07706000E756E3B0E746E0CD082
:101DF800000E776E000E766E000E756E000E746E15
:101E0800000E736E000E726E030E9E199F11D8A4F9
:101E18002CD075BE0DD0755004E10A0E745CD8A0A4
:101E280007D0F60E7424746EFF0E7520756E1DD0E3
:101E380077BE0FD0775003E17604D8A00AD0320ECF
:101E48007424746E000E7520756E7606D8A0770619
:101E58000CD0000E776E000E766E000E756E000EBA
:101E6800746E000E736E000E726E040E9E199F1132
:101E7800D8A416D777BE09D0775003E17604D8A046
:101E880004D07606D8A077060BD7000E776E000E22
:101E9800766E000E756E000E746E000E736E000E78
:101EA800726EFED681BA17D0000E776E000E766E6F
:101EB800000E756E000E746E000E736E000E726E5C
:101EC800000E0101A16F000EA06F000EA36F000E9F
:101ED800A26F829AD59E0101A051A111D8B458D001
:101EE80096C158F097C159F098C15AF099C15BF062
:101EF800000E0B6E000E0C6E800E0D6EBF0E0E6E79
:101F08009AC107F09BC108F09CC109F09DC10AF075
:101F180014EC14F007C05CF008C05DF009C05EF076
:101F28000AC05FF072EC1CF0D8B006D0828A000EAE
:101F38000101A36F010E2BD0000E0B6E000E0C6E6C
:101F4800800E0D6E3F0E0E6E9AC107F09BC108F011
:101F58009CC109F09DC10AF014EC14F007C058F0B8
:101F680008C059F009C05AF00AC05BF096C15CF08D
:101F780097C15DF098C15EF099C15FF072EC1CF0FA
:101F8800D8B006D0829A000E0101A36F000EA26F8E
:101F980002EC18F070D5BAC0D9FFBBC0DAFFDECFAB
:101FA800F6FFDDCFF7FF0800F550250AD8A475D253
:101FB800BAC0D9FFBBC0DAFFDE2A000EDD22000E50
:101FC8000001F56F000EF46FF4C0F8F0F5C0F9F0F9
:101FD800F669F769BAC0D9FFBBC0DAFFDECFF6FFF2
:101FE800DDCFF7FF0800F5502A0AD8A423D0BAC0DD
:101FF800D9FFBBC0DAFFDE2A000EDD22BCC0D9FF44
:10200800BDC0DAFFDFCFBEF0020EDE26DFCFBFF0A5
:10201800000EDD22BEC0D9FFBFC0DAFFDECFF4F06C
:10202800DDCFF5F0F5AF40D0F881F46DF51FD8B0ED
:10203800F52B3AD0BAC0D9FFBBC0DAFFDECF0EF01D
:10204800DDCF0FF040EC1BF00EC0F4F00FC0F5F040
:1020580007D0BAC0D9FFBBC0DAFFDE2A000EDD22E6
:10206800D00E0001BE6FFF0EBF6FBAC0D9FFBBC054
:10207800DAFFDECFF6FFDDCFF7FF0800F550C06FBF
:10208800C16BBE51C027BF51C123C15106E10A0E21
:10209800C05DD8B002D0010E01D0000ECA6FCB6B64
:1020A800CA51CB11D8A4D5D7BAC0D9FFBBC0DAFF63
:1020B800DECFF6FFDDCFF7FF0800F5502E0AD8A4D3
:1020C8006ED0000EF76F000EF66FBAC0D9FFBBC016
:1020D800DAFFDE2A000EDD22BAC0D9FFBBC0DAFF64
:1020E800DECFF6FFDDCFF7FF0800F5502A0AD8A4A7
:1020F8001CD0BAC0D9FFBBC0DAFFDE2A000EDD2231
:10210800BCC0D9FFBDC0DAFFDFCFBEF0020EDE26AD
:10211800DFCFBFF0000EDD22BEC0D9FFBFC0DAFF9F
:10212800DECFF6F0DDCFF7F03AD0BAC0D9FFBBC0AA
:10213800DAFFDECF0EF0DDCF0FF040EC1BF00EC063
:10214800F6F00FC0F7F007D0BAC0D9FFBBC0DAFF6E
:10215800DE2A000EDD22D00E0001BE6FFF0EBF6F1B
:10216800BAC0D9FFBBC0DAFFDECFF6FFDDCFF7FF7D
:102178000800F550C06FC16BBE51C027BF51C123C5
:10218800C15106E10A0EC05DD8B002D0010E01D0DF
:10219800000ECC6FCD6BCC51CD11D8A4D5D7BAC019
:1021A800D9FFBBC0DAFFDECFF6FFDDCFF7FF0800AF
:1021B800F5500D6E0E6A00EC21F00D500001D46F41
:1021C800D451D8B435D0BAC0D9FFBBC0DAFFDECFFE
:1021D800BEF0DDCFBFF0010EBE27000EBF23BEC08C
:1021E800F6FFBFC0F7FF0800F5500D6E0E6A00EC51
:1021F80021F00D500001D56FD551D8B419D0BAC00F
:10220800D9FFBBC0DAFFDECFBEF0DDCFBFF0020ED4
:10221800BE27000EBF23BEC0F6FFBFC0F7FF0800F1
:10222800F5500D6E0E6A00EC21F00D500001D66FCE
:10223800BAC0D9FFBBC0DAFFDECFF6FFDDCFF7FFAC
:102248000800F550640AD8B40DD0BAC0D9FFBBC095
:10225800DAFFDECFF6FFDDCFF7FF0800F550690A99
:10226800D8A43FD0BAC0D9FFBBC0DAFFDE2A000E1F
:10227800DD22BCC0D9FFBDC0DAFFDFCFBEF0020E41
:10228800DE26DFCFBFF0000EDD22BEC0D9FFBFC003
:10229800DAFFDECFC2F0DDCFC3F0000EC3BFFF0E02
:1022A800C46FC56FC66FC76FC86FC96FB8C022F05B
:1022B800B9C023F0C2C024F0C3C025F0C4C026F0C2
:1022C800C5C027F0C6C028F0C7C029F0C8C02AF08A
:1022D800C9C02BF0DEEC16F022C0B8F023C0B9F06C
:1022E8001200660ED419D8A43FD0BAC0D9FFBBC01B
:1022F800DAFFDECFF6FFDDCFF7FF0800F5CFD7F026
:10230800BAC0D9FFBBC0DAFFDE2A000EDD22BCC08E
:10231800D9FFBDC0DAFFDFCFBEF0040EDE26DFCF67
:10232800BFF0000EDD22BEC0D9FFBFC0DAFFDECF8E
:10233800D0F0DECFD1F0DECFD2F0DECFD3F0B8C010
:1023480064F0B9C065F0D0C066F0D1C067F0D2C003
:1023580068F0D3C069F0D7C06AF04CEC08F064C0EC
:10236800B8F065C0B9F01200D40E076E000E086E02
:10237800930E096E100E0A6E000E0C6E020E0B6E96
:102388009DEC1DF007500810D8A456D0BAC0D9FF4C
:10239800BBC0DAFFDECFBEF0DDCFBFF0010E00011B
:1023A800BE27000EBF23BEC0F6FFBFC0F7FF080060
:1023B800F5CFD7F0BF0EBE6FFF0EBF6FBAC0D9FF03
:1023C800BBC0DAFFDECFF6FFDDCFF7FF0800F55020
:1023D800C06FC16BBE51C027BF51C123C15106E1B7
:1023E8001A0EC05DD8B002D0010E01D0000ECE6F1B
:1023F800CF6BCE51CF11BCC0D9FFBDC0DAFFDFCF44
:10240800BEF0040EDE26DFCFBFF0000EDD22BEC018
:10241800D9FFBFC0DAFFDECFD0F0DECFD1F0DECFFC
:10242800D2F0DECFD3F0020EBAC0D9FFBBC0DAFFBC
:10243800DE26000EDD2283D7BAC0D9FFBBC0DAFF83
:10244800DECFF6FFDDCFF7FF0800F550250AD8A448
:1024580017D0BAC0D9FFBBC0DAFFDE2A000EDD22D2
:10246800000E086E250E076EB8C009F0B9C00AF054
:10247800EEEC1DF0000E0001B96F010EB86F1200EE
:10248800BAC0D9FFBBC0DAFFDE2A000EDD22000E7B
:102498000001B96F000EB86F1200BAC0D9FFBBC0F7
:1024A800DAFFDECFF6FFDDCFF7FF0800F550076E45
:1024B800086AB8C009F0B9C00AF0EEEC1DF0BAC05D
:1024C800D9FFBBC0DAFFDE2A000EDD22D3D7425087
:1024D800800B4B6E42504224516E41BE5180515088
:1024E800D8B40DD05128D8A408D0000E3F6E000EE5
:1024F800406E000E416E000E426E418E08D0000EF6
:102508003F6E000E406E000E416E000E426E465049
:10251800800B4B1A465046244C6E45BE4C804C509E
:10252800D8B40DD04C28D8A408D0000E436E000EA5
:10253800446E000E456E000E466E458E08D0000EA5
:10254800436E000E446E000E456E000E466E4C50F3
:10255800D8B403D05150D8A409D0000E3F6E000E55
:10256800406E000E416E000E426E120045503F0252
:10257800F3CF56F0F4CF57F056504D6E4E6A4F6A6F
:10258800506A5750526E536A546A556A4450400212
:10259800F3CF56F0F4CF57F056504D26000E4E228A
:1025A8004F22502257505226000E532254225522B1
:1025B80043504102F3CF56F0F4CF57F056504D2612
:1025C800000E4E224F22502257505226000E532200
:1025D800542255224FC050F04EC04FF04DC04EF01F
:1025E8004D6A43504002F3CF56F0F4CF57F056509F
:1025F8004D2657504E22000E4F22000E50224450B6
:102608003F02F3CF56F0F4CF57F056504D265750AF
:102618004E22000E4F22000E50224FC050F04EC0E6
:102628004FF04DC04EF04D6A43503F02F3CF56F085
:10263800F4CF57F056504D2657504E22000E4F22D9
:10264800000E502245504002F3CF56F0F4CF57F019
:102658005650522657505322000E5422000E55222F
:1026680044504102F3CF56F0F4CF57F0565052265B
:1026780057505322000E5422000E55224550410255
:10268800F3CF56F0F4CF57F05650476E5750486E78
:10269800496A4A6A49C04AF048C049F047C048F008
:1026A800476A4750522648505322495054224A50AC
:1026B80055224DC047F04EC048F04FC049F050C0B9
:1026C8004AF0190E05D0D8904A324932483247327A
:1026D800E82EF9D7475052264850532249505422E1
:1026E8004A5055224FC050F04EC04FF04DC04EF0EA
:1026F8004D6A4C5051C047F0486A4726000E4822A0
:10270800820E4724566EFF0E4820576E0FD0D89081
:10271800523653365436553650BE5280D8904D36C0
:102728004E364F3650365606D8A0570654AEEFD719
:10273800000E4C6E50AE17D0FF0E4D14476EFF0EB4
:102748004E14486EFF0E4F14496E7F0E50144A6E99
:102758004750481049104A10D8B403D0010E4C6EA7
:1027680002D052B0FBD74C50D8B41FD0010E52261D
:10277800000E53225422552255A017D052C047F0BC
:1027880053C048F054C049F055C04AF04A344A3260
:1027980049324832473247C052F048C053F049C026
:1027A80054F04AC055F0564A572A57BE0DD05750D4
:1027B80003E15628D8A008D0000E526E000E536EC2
:1027C800800E546E7F0E20D057BE05D057500EE1B4
:1027D8005604D8B00BD0000E526E000E536E000E89
:1027E800546E000E556E000E4B6E0FD056C051F051
:1027F800FF0E5216FF0E53167F0E5416000E551676
:1028080051B0548ED8905130556E4B50551252C01D
:102818003FF053C040F054C041F055C042F01200A0
:102828000A50800B136E0A500A24156E09BE1580D3
:102838001550D8B40DD01528D8A408D0000E076EAE
:10284800000E086E000E096E000E0A6E098E06D084
:10285800000E076E000E086E000E096E000E0A6E5E
:102868000E50800B146E13501418D8A4138C0E50ED
:102878000E24146E0DBE14801450D8B40DD0142834
:10288800D8A408D0000E0B6E000E0C6E000E0D6E54
:10289800000E0E6E0D8E06D0000E0B6E000E0C6E26
:1028A800000E0D6E000E0E6E1550145CD8B022D0BE
:1028B80013AC02D0800E131A15C016F014C015F010
:1028C80016C014F007C016F00BC007F016C00BF0C6
:1028D80008C016F00CC008F016C00CF009C016F0BD
:1028E8000DC009F016C00DF00AC016F00EC00AF0AF
:1028F80016C00EF0000E166E155014C00FF0106AB8
:102908000F5E000E105A10BE2CD0105004E11A0EA3
:102918000F5CD8A026D00750081009100A10D8B4A8
:1029280002D0010E01D0000E166E000E076E000ECA
:10293800086E000E096E000E0A6E14C015F015D050
:1029480016A005D0D89016300109166E02D0D8907E
:10295800163207B0168E0A340A32093208320732A4
:10296800152A1450155CD8A0EBD713BC28D01550E5
:10297800D8A409D0000E076E000E086E000E096E6E
:10298800000E0A6E12000B5007260C5008220D503C
:1029980009220E500A220AA071D016A005D0D8909C
:1029A80016300109166E02D0D890163207B0168E6E
:1029B8000A340A32093208320732152A5FD00B501E
:1029C800075C0C5008580D5009580A50800A0F6EC1
:1029D8000E50800A0F58D8B025D007500B5C0F6EE8
:1029E80008500C58106E09500D58116E0A500E58A8
:1029F800126EFF0E0F24076EFF0E1020086EFF0EDA
:102A08001120096EFF0E12200A6E800E131A166C22
:102A18001650D8A40FD0010E0726000E082209224E
:102A28000A2208D00B50075E0C50085A0D50095A5C
:102A38000E500A5A0750081009100A10D8A41CD0C2
:102A48001650D8A419D0000E076E000E086E000E9E
:102A5800096E000E0A6E1200D8900736083609363D
:102A68000A3616BE078016A002D0D88001D0D890AA
:102A780016361550D8A4150609AEEED7000E146EFA
:102A880016AE0BD016C00FF07F0E0F16D8B403D0B9
:102A9800010E146E02D007B0FBD71450D8B420D062
:102AA800010E0726000E082209220A220AA018D0C1
:102AB80007C00FF008C010F009C011F00AC012F0EA
:102AC80012341232113210320F320FC007F010C018
:102AD80008F011C009F012C00AF01528D8A4152A68
:102AE8001528D8B403D01550D8A40DD0000E076E01
:102AF800000E086E000E096E000E0A6E1550D8A45E
:102B080002D0000E136E15A002D0098E01D0099EC6
:102B1800D89015300A6E13BE0A8E07C007F008C099
:102B280008F009C009F00AC00AF012001E50800B14
:102B38002B6E1E501E24326E1DBE32803250D8B409
:102B48000DD03228D8A408D0000E1B6E000E1C6EC3
:102B5800000E1D6E000E1E6E1D8E06D0000E1B6E22
:102B6800000E1C6E000E1D6E000E1E6E2250800B95
:102B78002B1A22502224336E21BE33803350D8B40E
:102B88000DD03328D8A408D0000E1F6E000E206E7A
:102B9800000E216E000E226E218E06D0000E1F6ED2
:102BA800000E206E000E216E000E226E1F502010A7
:102BB80021102210D8A417D0000E1B6E000E1C6E18
:102BC800000E1D6E000E1E6E800E1D127F0E1E1250
:102BD8002B501E121BC01BF01CC01CF01DC01DF08A
:102BE8001EC01EF012003250D8A409D0000E1B6E71
:102BF800000E1C6E000E1D6E000E1E6E120033506D
:102C080032C023F0246A235E000E245A7F0E232448
:102C18002C6E000E24202D6E1BC027F01CC028F03F
:102C28001DC029F01EC02AF0000E1B6E000E1C6E7F
:102C3800000E1D6E000E1E6E000E2E6E000E2F6E04
:102C4800000E306E000E316E000E336E28D03350F9
:102C5800D8B411D0D8902736283629362A36D890B5
:102C68001B361C361D361E3631BE1B80D8902E36BC
:102C78002F36303631361F50275C205028582150C7
:102C8800295822502A58D8A009D0318C1F50275EC5
:102C98002050285A2150295A22502A5A332A190ECC
:102CA8003364D5D72750281029102A10D8B411D04A
:102CB8002E800FD0D8901B361C361D361E3631BEDE
:102CC8001B80D8902E362F36303631362C06D8A0B9
:102CD8002D061DAEEFD7000E336E31AE17D0FF0EA6
:102CE8002E14236EFF0E2F14246EFF0E3014256E43
:102CF8007F0E3114266E2350241025102610D8B4C8
:102D080003D0010E336E02D01BB0FBD73350D8B4BA
:102D18001FD0010E1B26000E1C221D221E221EA0E3
:102D280017D01BC023F01CC024F01DC025F01EC006
:102D380026F02634263225322432233223C01BF0D3
:102D480024C01CF025C01DF026C01EF02C4A2D2AD8
:102D58002DBE10D02D5003E12C28D8A00BD0000E8A
:102D68002D6E2C68000E1B6E000E1C6E000E1D6E64
:102D7800000E1E6E2DBE05D02D5011E12C04D8B0CA
:102D88000ED0000E2D6E000E2C6E000E1B6E000E67
:102D98001C6E000E1D6E000E1E6E000E2B6E2CC0DB
:102DA80032F032A002D01D8E01D01D9ED890323054
:102DB8001E6E0ED724C03CF025C03DF026C03EF064
:102DC80027C03FF028C040F029C041F02AC042F097
:102DD8002BC043F043AE02D0010E01D0000E3A6E74
:102DE8003B6A3A503B10D8B410D0431E421E411ED5
:102DF800401E3F1E3E1E3D1E3C6C000E3D223E22E4
:102E08003F2240224122422243220001F7AFF89399
:102E1800F7BF05D0F75108E1F605D8B005D0000E88
:102E2800376E010E366E04D0F6C036F0F7C037F0B4
:102E3800F4C038F0F5C039F03A503B10D8A402D0AD
:102E4800F8A503D03806D8A03906000E456E4F0EF7
:102E5800446E000E0101F36F7CD04406D8A04506ED
:102E6800A40E4424D96E010E4520DA6E3CC007F04A
:102E78003DC008F03EC009F03FC00AF040C00BF06A
:102E880041C00CF042C00DF043C00EF00A0E0F6EA8
:102E9800000E106E000E116E000E126E000E136EF4
:102EA800000E146E000E156E000E166EE0EC1BF090
:102EB80007C02CF008C02DF009C02EF00AC02FF072
:102EC8000BC030F00CC031F00DC032F00EC033F042
:102ED8002CC019F02EC01AF0DEEC21F01950300F7A
:102EE800DF6E3606D8A037063806D8A039063CC0AB
:102EF80007F03DC008F03EC009F03FC00AF040C0EE
:102F08000BF041C00CF042C00DF043C00EF00A0EA9
:102F18000F6E000E106E000E116E000E126E000E77
:102F2800136E000E146E000E156E000E166EFCEC7D
:102F380019F007C03CF008C03DF009C03EF00AC0D7
:102F48003FF00BC040F00CC041F00DC042F00EC085
:102F580043F045BE20D0455003E14404D8A01BD01F
:102F68003C503D103E103F1040104110421043109D
:102F7800D8A473D737BE05D0375002E13604D8B08D
:102F88006CD739BE08D0395003E13804D8A003D033
:102F98000001F8B362D73A503B10D8A403D000011F
:102FA800F8A517D04406D8A045063A503B10D8A437
:102FB80004D0000E356E2B0E03D0000E356E2D0E8C
:102FC800346EA40E4424D96E010E4520DA6E34C046
:102FD800DFFF22C017F023C018F0A40E4424196E96
:102FE800010E45201A6E38C01BF039C01CF03EECAB
:102FF8001EF017C022F018C023F0120037D00A0EB6
:10300800DE6F010EDF6F180EE06F100EE16F07EC38
:1030180020F045D00A0EDE6F010EDF6F160EE06F4E
:10302800100EE16F07EC20F03AD00A0EDE6F010EA9
:10303800DF6F260EE06F100EE16F07EC20F02FD047
:103048000A0EDE6F010EDF6F340EE06F100EE16FB7
:1030580007EC20F024D00A0EDE6F010EDF6F580E49
:10306800E06F100EE16F07EC20F019D09EC1E8F078
:103078009FC1E9F00001E951000AD8A410D0E85135
:10308800000AD8B4BCD7010AD8B4C4D7030AD8B444
:10309800CCD7010AD8B4D4D7070AD8B4DCD70101F1
:1030A800A251A311D8B40CD08A0E0001DE6F010E14
:1030B800DF6F780EE06F100EE16F07EC20F00BD099
:1030C8008A0E0001DE6F010EDF6F6A0EE06F100ED0
:1030D800E16F07EC20F00101A051A111D8B40CD088
:1030E800900E0001DE6F010EDF6F710EE06F100EA3
:1030F800E16F07EC20F00BD0900E0001DE6F010E9F
:10310800DF6F630EE06F100EE16F07EC20F0010E29
:10311800116E010EB2EC20F04A0E0001DE6F010EB6
:10312800DF6F010EE06F100EE16F76C0E2F077C03E
:10313800E3F074C0E4F075C0E5F072C0E6F073C067
:10314800E7F007EC20F04A0E196E010E1A6ED1EC6A
:1031580022F0020E116E010EB2EC20F04A0E0001B0
:10316800DE6F010EDF6F4C0EE06F100EE16F96C13F
:10317800E2F097C1E3F098C1E4F099C1E5F007ECFB
:1031880020F04A0E196E010E1A6ED1EC22F0020ED2
:10319800116E0B0EB2EC20F0900E196E010E1A6E25
:1031A800D1EC22F0030E116E010EB2EC20F04A0EA3
:1031B8000001DE6F010EDF6F400EE06F100EE16F51
:1031C8009AC1E2F09BC1E3F09CC1E4F09DC1E5F037
:1031D80007EC20F04A0E196E010E1A6ED1EC22F09F
:1031E800030E116E0B0EB2EC20F08A0E196E010E52
:1031F8001A6ED1EC22F0040E116E010EB2EC20F022
:103208004A0E0001DE6F010EDF6F8F0EE06F100EA9
:10321800E16F07EC20F04A0E196E010E1A6ED1EC20
:1032280022F0040E116E040EB2EC20F00A0E196E94
:10323800010E1A6ED1EC22F01200EAC044F0EBC085
:1032480045F0ECC046F0EDC047F034C044F035C05E
:1032580045F036C046F037C047F0810E386EFF0E95
:10326800396E44C03AF045C03BF046C03CF047C018
:103278003DF0180E05D0D8903D323C323B323A3200
:10328800E82EF9D73A503824426E000E3920436EA2
:1032980043BE0FD0435004E1170E425CD8A009D0BA
:1032A80034C034F035C035F036C036F037C037F0AA
:1032B800120043BE5ED042C038F0FF0E396EFF0EDA
:1032C8003A6E7F0E3B6E000E3C6E386601D007D01A
:1032D8003C343C323B323A323932382EF6D739C098
:1032E8003EF03AC03FF03BC040F03CC041F03E5099
:1032F8004414386E3F504514396E405046143A6EA7
:10330800415047143B6E385039103A103B10D8B42E
:10331800C7D744C038F045C039F046C03AF047C076
:103328003BF0200E05D0D8903B323A323932383251
:10333800E82EF9D7385039103A103B10D8B408D0D5
:103348003E5044263F504522405046224150472295
:103358003E1C386E3F1C396E401C3A6E411C3B6E59
:1033680038504416395045163A5046163B504716C1
:1033780036D044C038F045C039F046C03AF047C0AE
:103388003BF0200E05D0D8903B323A3239323832F1
:10339800E82EF9D7385039103A103B10D8A408D085
:1033A800000E446E000E456E000E466E000E16D0DE
:1033B800D8904434386E4534396E46343A6E4734C2
:1033C8003B6E385039103A103B10D8B408D0000E74
:1033D800446E000E456E800E466EBF0E476E44C0AA
:1033E80034F045C035F046C036F047C037F012001B
:1033F800000E186E16AE12D0161E151E141E131EC1
:10340800121E111E101E0F6C000E10221122122205
:103418001322142215221622010E186E0EAE12D097
:103428000E1E0D1E0C1E0B1E0A1E091E081E076C02
:10343800000E082209220A220B220C220D220E223B
:10344800010E181A20EE19F0070EDE6AE806FDE2F2
:103458000F50101011101210131014101510161010
:10346800D8B446D0010E176E0AD0D8900F36103651
:10347800113612361336143615361636172A16AE86
:10348800F4D7D89019361A361B361C361D361E3618
:103498001F3620360F50075C105008581150095835
:1034A80012500A5813500B5814500C5815500D58F8
:1034B80016500E58D8A011D00F50075E1050085A59
:1034C8001150095A12500A5A13500B5A14500C5AD8
:1034D80015500D5A16500E5A1980D89016321532BA
:1034E800143213321232113210320F32172EC9D75A
:1034F8001850D8B410D0201E1F1E1E1E1D1E1C1EC4
:103508001B1E1A1E196C000E1A221B221C221D22B9
:103518001E221F22202219C007F01AC008F01BC063
:1035280009F01CC00AF01DC00BF01EC00CF01FC033
:103538000DF020C00EF01200156E1550D8A410AE74
:103548001AD00DC011F00EC012F00FC013F010C049
:1035580014F0111E121E131E141E112A000E122220
:103568001322142211C017F012C018F013C019F05A
:1035780014C01AF008D00DC017F00EC018F00FC014
:1035880019F010C01AF00D500E100F101010D8A41A
:1035980009D0000E0D6E000E0E6E000E0F6E000E9E
:1035A800106E1200960E166E06D0162AD8901A3291
:1035B800193218321732000E1714116E000E181433
:1035C800126E000E1914136EFE0E1A14146E11509A
:1035D800121013101410D8B40DD0E7D7162A010E04
:1035E8001726000E182219221A22D8901A321932D8
:1035F80018321732000E1714116E000E1814126EBE
:10360800000E1914136EFF0E1A14146E11501210B6
:1036180013101410D8B407D0E1D71606D89017366F
:10362800183619361A3619BE03D0020E1660F5D7A9
:1036380016A0199ED890163216C011F0126A136A95
:10364800146A11C014F0136A126A116A1150171221
:10365800125018121350191214501A121550D8A4D7
:1036680010AE01D01A8E17C00DF018C00EF019C098
:103678000FF01AC010F01200000E1C6E000E1B6E28
:10368800000E156E000E146E02D00E4A0F2A010E9F
:103698001A6E0EC0F6FF0FC0F7FF0800F550200A9B
:1036A800D8B418D0F70E106EFF0E116E0EC0F6FFCC
:1036B8000FC0F7FF0800F550126E136A105012265B
:1036C80011501322135004E1050E125CD8A002D049
:1036D800000E1A6E1AC016F0176A16501710D8B4D2
:1036E80008D0D3D7000E156E010E146E0E4A0F2A9D
:1036F8002ED00EC0F6FF0FC0F7FF0800F550106E71
:10370800116A1150000AD8A422D010502B0AD8B43C
:10371800EDD7060AD8B4E6D71AD01BC007F01CC0EC
:1037280008F0000E0A6E0A0E096E98EC22F00EC020
:10373800F6FF0FC0F7FF0800F550075E000E085AA5
:10374800300E07241B6E000E08201C6ECFD7D00E3B
:10375800106EFF0E116E0EC0F6FF0FC0F7FF0800C7
:10376800F550126E136A105012261150132213507E
:1037780006E10A0E125CD8B002D0010E01D0000E8C
:10378800186E196A18501910D8A4C7D714501510F4
:10379800D8A40DD01BC010F01CC011F0101E111EB3
:1037A800104A112A10C00EF011C00FF012001BC0F1
:1037B8000EF01CC00FF01200000E186E0EAE12D0E4
:1037C8000E1E0D1E0C1E0B1E0A1E091E081E076C5F
:1037D800000E082209220A220B220C220D220E2298
:1037E800010E186E16AE10D0161E151E141E131ECE
:1037F800121E111E101E0F6C000E10221122122212
:1038080013221422152216220F5010101110121014
:103818001310141015101610D8B43CD0010E176EE2
:103828000AD0D8900F3610361136123613361436A1
:1038380015361636172A16AEF4D70F50075C1050F7
:1038480008581150095812500A5813500B58145060
:103858000C5815500D5816500E58D8A010D00F50AF
:10386800075E1050085A1150095A12500A5A13503C
:103878000B5A14500C5A15500D5A16500E5AD8900F
:1038880016321532143213321232113210320F320C
:10389800172ED3D71850D8B410D00E1E0D1E0C1EDC
:1038A8000B1E0A1E091E081E076C000E082209229C
:1038B8000A220B220C220D220E2207C007F008C094
:1038C80008F009C009F00AC00AF00BC00BF00CC0E0
:1038D8000CF00DC00DF00EC00EF01200000E5814C2
:1038E800606E000E5914616E800E5A14626E7F0E5F
:1038F8005B14636E6050611062106310D8A408D026
:10390800000E586E000E596E000E5A6E000E5B6E59
:10391800000E5C14606E000E5D14616E800E5E1405
:10392800626E7F0E5F14636E6050611062106310E8
:10393800D8A408D0000E5C6E000E5D6E000E5E6EA0
:10394800000E5F6E5BAE09D0586C591ED8B0592A6C
:103958005A1ED8B05A2A800E5B565FAE09D05C6CEE
:103968005D1ED8B05D2A5E1ED8B05E2A800E5F56F6
:10397800000E581A000E591A000E5A1A800E5B1AB9
:10398800000E5C1A000E5D1A000E5E1A800E5F1A99
:103998005C50585C5D5059585E505A585F505B589F
:1039A800D8B002D0D8901200D8801200EEC011F022
:1039B800EFC012F0F0C013F0F1C014F007C011F01E
:1039C80008C012F009C013F00AC014F011C00BF0BF
:1039D80012C00CF013C00DF014C00EF0180E05D074
:1039E800D8900E320D320C320B32E82EF9D70B502C
:1039F8000F6E106A0F501010D8A419D0D890113437
:103A08000B6E12340C6E13340D6E14340E6E0B5094
:103A18000C100D100E10D8A405D0000E086E020E62
:103A2800076E1200000E086E030E076E12000F28B4
:103A38001010D8A41CD011C00BF012C00CF013C089
:103A48000DF014C00EF0090ED8900B360C360D365A
:103A58000E36E82EF9D70B500C100D100E10D8A406
:103A680002D0010E01D0000E076E086A1200000E87
:103A7800086E040E076E120009340A34106E1050D6
:103A8800D8A409D0000E076E000E086E000E096E4D
:103A9800000E0A6E120007C00BF008C00CF009C037
:103AA8000DF00AC00EF0200E05D0D8900E320D325F
:103AB8000C320B32E82EF9D70B500F6E098EFF0E21
:103AC8000716FF0E0816FF0E0916000E0A16960EA8
:103AD800105E10AE0DD01050800A970FD8A0D2D724
:103AE800D8900A32093208320732103EF9D70DD081
:103AF8001F0E106407D0C6D7D89007360836093687
:103B08000A3610061050D8A4F7D70F50D8B408D0EA
:103B18000A1E091E081E076C000E082209220A2226
:103B280007C007F008C008F009C009F00AC00AF089
:103B3800120007C00EF008C00FF009C010F00AC04C
:103B480011F00B06D8A00C060B280FE10C28D8A4FE
:103B58000CD0000E086E000E076E12000E4A0F2AD7
:103B6800104A112A0B06D8A00C060EC0D9FF0FC0A8
:103B7800DAFFDF50D8B41CD010C0F6FF11C0F7FF31
:103B88000800F5500009D8B413D00B500C10D8B465
:103B98000FD00EC0D9FF0FC0DAFFDF500D6E10C076
:103BA800F6FF11C0F7FF0800F5500D18D8B4D6D7A6
:103BB8000EC0D9FF0FC0DAFFDF500D6E10C0F6FF40
:103BC80011C0F7FF0800F5500D5C076E086AD8A011
:103BD8000806120009500A10D8B404D009500A1077
:103BE800D8A404D007502DEC23F0120020EE04F0E6
:103BF8000950D9260A50DA22DE50DE10D8B416D081
:103C080020EE04F00950D9260A50DA2210EE02F00C
:103C18000950E1260A50E222DE50E65CE650800AAE
:103C28000F6EDE50800A0F58D8B0120020EE02F056
:103C38000950D9260A50DA22DECF0BF0DDCF0CF07E
:103C480009C0D9FF0AC0DAFFDECF0DF0DDCF0EF0D4
:103C58000B500D24D96E0C500E20DA6E07C0DFFF12
:103C680020EE02F00950D9260A50DA22DE2A000E88
:103C7800DD2212000001F8A10AD019C010F01AC004
:103C880011F017C012F018C013F0C2EC21F01CBEDE
:103C980005D01BC020F01CC021F004D0000E216EFE
:103CA800000E206E000E1F6E000E1E6E0CD0000E51
:103CB800086E200E076E17C009F018C00AF0EEEC67
:103CC8001DF01E4A1F2A20501E5C1F50800A1D6EC0
:103CD8002150800A1D58D8A0EAD70001F8B10AD0AF
:103CE80019C010F01AC011F017C012F018C013F064
:103CF800C2EC21F019C007F01AC008F06EEC22F0EF
:103D080020500724176E21500820186E1200F294D4
:103D180073BE09D0735003E17204D8A004D07206B0
:103D2800D8A073063BD075BE0DD0755003E174045E
:103D3800D8A008D0000E736E3B0E726E7406D8A021
:103D480075062CD077BE11D0775003E17604D8A041
:103D58000CD07606D8A07706000E756E3B0E746EF2
:103D6800000E736E3B0E726E19D0000E776E000E49
:103D7800766E000E756E000E746E000E736E000E79
:103D8800726E000E0101A16F000EA06F000EA36FEE
:103D9800000EA26F829AD59E87EC21F025EC23F0C5
:103DA8001200000E07140F6E000E0814106E800E1D
:103DB8000914116E7F0E0A14126E0F501010111094
:103DC8001210D8A408D0000E076E000E086E000E60
:103DD800096E000E0A6E000E0B140F6E000E0C1406
:103DE800106E800E0D14116E7F0E0E14126E0F5091
:103DF800101011101210D8A408D0000E0B6E000E6F
:103E08000C6E000E0D6E000E0E6E0B5007180AE1B8
:103E18000C50081807E10D50091804E10E500A1853
:103E2800D8B402D0D8901200D8801200000E0C6EC0
:103E38000AAE06D0096C0A1ED8B00A2A010E0C6E0A
:103E480008AE06D0076C081ED8B0082A010E0C1A56
:103E5800000E0E6E000E0D6E09500A10D8B41CD05C
:103E6800010E0B6E04D0D89009360A360B2A0AAE1A
:103E7800FAD7D8900D360E360950075C0A50085804
:103E8800D8A005D00950075E0A50085A0D80D8906E
:103E98000A3209320B2EEDD70C50D8B404D00D6C71
:103EA8000E1ED8B00E2A0DC007F00EC008F0120082
:103EB8003C6E3C5049EC21F007C03DF008C03EF094
:103EC8003DC007F03EC008F0000E0A6E050E096EF0
:103ED80098EC22F007C00DF008C00EF0000E0EBEE0
:103EE800FF0E0F6E106E010EA0EC1AF00DC01BF045
:103EF8000EC01CF00FC01DF010C01EF0000E1F6E8B
:103F0800C00E206E7F0E216E440E226E9AEC15F0C4
:103F18001BC038F01CC039F01DC03AF01EC03BF081
:103F280038C034F039C035F03AC036F03BC037F00D
:103F38001200000E0C6E08AE06D0076C081ED8B032
:103F4800082A010E0C6E0AAE04D0096C0A1ED8B0FD
:103F58000A2A09500A10D8B418D0010E0B6E04D0E2
:103F6800D89009360A360B2A0AAEFAD70950075CE8
:103F78000A500858D8A004D00950075E0A50085AB9
:103F8800D8900A3209320B2EF1D70C50D8B404D08D
:103F9800076C081ED8B0082A07C007F008C008F048
:103FA8001200186E1ED0010E0F6E000EA5EC21F047
:103FB800000E086E020E076EABEC22F01200020E25
:103FC800116E010EB2EC20F01200100E0F6E000EF2
:103FD800A5EC21F0120018C00FF0010EA5EC21F09D
:103FE80012001850166E176A1750000AD8A4F3D793
:103FF8001650080AD8B4E9D7020AD8B4E0D7060A96
:10400800D8B4D1D7E8D7E20E0101026F000E036FD2
:10401800DEC004F1DFC005F1000E076F000E066F69
:10402800000E096F000E086F040E0001D86F010E14
:10403800D96FE0C0DAF0E1C0DBF0020EDC6F010EF0
:10404800DD6F34EC20F0010106510001DE25D96E48
:10405800010107510001DF21DA6E000EDF6E120048
:10406800DAC070F0DBC071F0000E0001F36F000ED3
:10407800F26F13D0D8C0B8F0D9C0B9F0700EBA6FCB
:10408800000EBB6FDCC0BCF0DDC0BDF0CFEC0FF0A4
:104098000001B851F227B951F32370C0F6FF71C07F
:1040A800F7FF0800F5500009D8A4E4D7F2C0D8F00B
:1040B800F3C0D9F0120009C00DF00AC00EF007C015
:1040C8000FF008C010F00D500B6E0E500C6E0D4A1C
:1040D8000E2A0BC0F6FF0CC0F7FF000EF86E0FC0DB
:1040E800D9FF10C0DAFF0F4A102A0F0EF76403D069
:1040F8000800F55005D0F6CFE1FFF7CFE2FFE75013
:10410800DF6EDF50D8B41200DED7540EF66E460EBE
:10411800F76E000EF86E01EEF4F010EE06F00900EE
:10412800F5CFEEFFE550E150FAE101EE96F05E0EB4
:10413800EE6AE806FDE100EEEAF0100EEE6AE80627
:10414800FDE1776A766A756A746A736A726A78904A
:104158007892000EF86E00010AEF0DF0146E09D087
:10416800800E05D0C00E03D0900E01D0D00E156E73
:1041780014D01150126E136A1350000AD8A40DD02F
:104188001250010AD8B4ECD7030AD8B4EBD7010A05
:10419800D8B4EAD7070AD8B4E9D7140415261550B5
:1041A80080090F6E000EA5EC21F012008494849211
:1041B800000E086E190E076EABEC22F0010E116EA0
:1041C800030EE3EC22F0112A030E1164F9D7020E54
:1041D800E3EC22F0000E116EF40E1124D96EDA6AA7
:1041E800010EDA22DF500F6E000EA5EC21F0112A25
:1041F800030E1164F1D71200BF0E0F6EFF0E106E82
:104208000DC011F00EC012F00F50112610501222DE
:10421800125006E11A0E115CD8B002D0010E01D07E
:10422800000E136E146A13501410D8B406D0200E62
:104238000D100D6E0E500E6E12000DC00DF00EC05A
:104248000EF01200000E5C1A000E5D1A000E5E1AC7
:10425800800E5F1A58C007F059C008F05AC009F01C
:104268005BC00AF05CC00BF05DC00CF05EC00DF0E6
:104278005FC00EF014EC14F007C058F008C059F0F5
:1042880009C05AF00AC05BF012000D6E0DC009F0AB
:1042980009460946C2500918C30B0918C26EC282E2
:1042A80001D00400C2B2FDD7C350C4CF09F00A6AD6
:1042B80009C00AF0096A09100B6E0A500C6E0BC08F
:1042C80007F00CC008F01200010E0D6E200E071842
:1042D8000810D8B414D0F70E096EFF0E0A6E07C086
:1042E8000BF008C00CF009500B260A500C220C5099
:1042F80004E1050E0B5CD8A002D0000E0D6E0DC0B7
:1043080007F0086A1200000E066E000E056E828223
:10431800030E026EE80E016EBEEC22F08292030ECE
:10432800026EE80E016EBEEC22F0054A062A06BEB1
:10433800EED7065005E1040E055CD8B01200E7D7A9
:104348001200106E10B002D0849401D08484010E43
:1043580057EC22F0010E57EC22F084920F380F0B25
:10436800E3EC22F00F500F0BE3EC22F01050D8B41E
:104378001200320E0400E82EFDD71200000E166E51
:10438800000E156E0BD014C007F0086A12C009F0B1
:1043980013C00AF0EEEC1DF0154A162A1550102429
:1043A800D96E16501120DA6EDF50146E1450D8B43E
:1043B8001200E9D71ABE05D01A5010E11904D8B076
:1043C8000DD019C01BF01AC01CF01B1E1C1E1B4A66
:1043D8001C2A1BC019F01CC01AF0120019C019F0D1
:1043E8001AC01AF01200F09074507624016E7550BD
:1043F8007720026E725001267350022202BE12000C
:10440800025003E10104D8A01200D58E000E01016C
:10441800A16F010EA06F1200BF0E096EFF0E0A6E8B
:1044280007C00BF008C00CF009500B260A500C22EC
:104438000C5006E11A0E0B5CD8B002D0010E01D068
:10444800000E076E086A1200D00E096EFF0E0A6E83
:1044580007C00BF008C00CF009500B260A500C22BC
:104468000C5006E10A0E0B5CD8B002D0010E01D048
:10447800000E076E086A12000750081009100A108B
:10448800D8B408D0000E071A000E081A000E091A30
:10449800800E0A1A07C007F008C008F009C009F022
:1044A8000AC00AF012000A6E000E0C6E000E0B6EA7
:1044B80003D004000B4A0C2A0A50076E086A0B50F6
:1044C800075C0850800A096E0C50800A0958D8A069
:1044D8001200EFD707C009F008C00AF002D0074A57
:1044E800082A07C0D9FF08C0DAFFDF50D8A4F7D7D9
:1044F8000950075C076E0A500858086E120006003B
:10450800F2A403D08BEC1EF00DD0F2A203D003EC82
:1045180023F008D0F0A003D0F7EC21F003D0F0B2DC
:1045280012EC23F07892110007500902F3CF0BF038
:10453800F4CF0CF007500A02F3500C260850090279
:10454800F3500C260BC007F00CC008F01200000E48
:104558000A6E000E096E07D0C80E04000400E82E8B
:10456800FCD7094A0A2A0750095C08500A58D8B0EB
:104578001200F2D7000E046E000E036E07D0C80EAC
:1045880004000400E82EFCD7034A042A0150035C07
:1045980002500458D8B01200F2D709D019C0D9FF78
:1045A8001AC0DAFFDF50D5EC1FF0194A1A2A19C0D1
:1045B800D9FF1AC0DAFFDF50D8B41200EFD70E6E59
:1045C8000EC00DF00D3A83500D180F0B0D18836EA9
:1045D800010E57EC22F08482040000F0849212004D
:1045E800000EC26E0C0EC16E9368000E946E000E23
:1045F800826E9268000E956E000E966E1200F29210
:10460800040E01019E199F11D8A405D0000E9F6FBA
:10461800000E9E6F12009E4B9F2B1200F092D59EAB
:10462800000E0101A16F000EA06F000EA36F000E17
:10463800A26F829A1200000EC26EC280890EC06EEE
:1046480012000B0EB36EDC0EB26E1200280C0106BF
:04465800010012004B
:020000040020DA
:08000000FFFFFFFFFFFFFFFF00
:020000040030CA
:0E000000FF011F1FFF8385FF0FC00FE00F40A1
:00000001FF
